:100000000C9446000C9465000C9465000C946500FB
:100010000C9465000C9465000C9465000C946500CC
:100020000C9465000C9465000C9465000C946500BC
:100030000C9465000C9465000C9465000C946500AC
:100040000C9465000C9465000C9465000C9465009C
:100050000C9465000C94DD0B0C9465000C94650009
:100060000C9465000C9465000C9465000C9465007C
:100070000C9465000C9465000C9465000C9465006C
:100080000C9465000C9465000C94650011241FBE4F
:10009000CFEFD0E1DEBFCDBF11E0A0E0B1E0E2EDF7
:1000A000F0E200E00BBF02C007900D92A232B10750
:1000B000D9F721E0A2E2B1E001C01D92AC32B20753
:1000C000E1F70E94B30C0C9467100C940000CF92DF
:1000D000DF92EF92FF929C0161E070E080E090E09F
:1000E00021153105D9F021503109DC01CB01880FF0
:1000F000991FAA1FBB1F6C017D01CC0CDD1CEE1CDF
:10010000FF1CCC0CDD1CEE1CFF1CBC01CD016C0DDA
:100110007D1D8E1D9F1D2115310529F7FF90EF9044
:10012000DF90CF900895CF93DF936115710571F043
:10013000EC011B821A828FEF9FEF9D838C837F835C
:100140006E83CB010E94460F99838883DF91CF9104
:100150000895FC01228133814481558121153105A7
:1001600061F44F3F8FEF580731F0CA01821B930BA8
:100170009C012F5F3F4FC901089542175307A8F70D
:1001800086819781480F591F4F5F5F4FCA01821BBD
:10019000930B9C01C9010895CF93FC01C62F2281C6
:1001A00033818481958121153105E1F48F3F4FEF33
:1001B000940731F0DC01A21BB30B9D012F5F3F4F71
:1001C000668177812617370758F401960E94DE0C66
:1001D0009583848320813181F901E80FF91FC08361
:1001E000CF9108958217930728F766817781AC0134
:1001F000460F571F4F5F5F4FDA01A21BB30B9D01E4
:10020000E1CFEF92FF920F931F93CF93DF93FC0107
:10021000DB014C914423B9F1EB01219601E010E0A0
:100220001DC08F3FBFEF9B0731F07801E21AF30A40
:100230009701280F391F668177812617370758F4F1
:1002400001960E94DE0C9583848320813181D9013F
:10025000A80FB91F4C9349914423A9F022813381FF
:100260008481958121153105E1F282179307E8F623
:1002700066817781DC01A60FB71F11967D01E21A16
:10028000F30A9701DACFDF91CF911F910F91FF9081
:10029000EF900895FC01828193812481358100973C
:1002A00061F42F3F4FEF340731F0A901481B590B80
:1002B0004F3F5F4FD9F48FEF089528173907A8F7FC
:1002C00066817781A901460F571F4F5F5F4F8417E3
:1002D000950789F3A081B181A80FB91F4C916F5F79
:1002E0007F4F681B790B260F371F0FC0A081B1818C
:1002F000A80FB91F4C910097E1F42F3F5FEF35072E
:1003000039F0281B390B2F5F3F4F2130310549F061
:100310000196668177810E94DE0C93838283842F0D
:100320000895138212828FEF9FEF95838483842F29
:1003300008952817390728F766817781D0CFEC0117
:100340008A819B81EC81FD810E811F8168012FEFE5
:10035000C21AD20A7601AA24AA94BA2C12C0EF3F7C
:100360002FEFF20751F19F012F5F3F4F281B390BF1
:1003700021303105C9F00196B8010E94DE0C9B8343
:100380008A83009761F3E817F907C0F496012E0FEE
:100390003F1F28173907E9F397012E0F3F1F281B2E
:1003A000390B2130310539F71B821A82BD82AC82AC
:1003B000EFEFFFEF80E090E0E4CFFFCF9F012F5FF2
:1003C0003F4F28173907E9F3D1CFFC018081918194
:1003D0000C94DE0F2F923F924F925F926F927F921A
:1003E0008F929F92AF92BF92CF92DF92EF92FF9245
:1003F0000F931F93CF93DF93CDB7DEB72C970FB634
:10040000F894DEBF0FBECDBF4B015C015C874B870C
:100410003E832D8318010E94F80D69837A838B83B4
:100420009C830E94270E9B01AC01C501B4010E9470
:10043000140D6F83788789879A87CB84DC84C114F5
:10044000D10409F4E4C17601F80142815381668147
:1004500077810480F581E02DFC86EB8681E090E0D9
:10046000A0E0B0E02B853C85215031093C872B87EB
:10047000880F991FAA1FBB1F8C019D01000F111F20
:10048000221F331F000F111F221F331F080F191FB8
:100490002A1F3B1FD901C801CB84DC84CD2811F76A
:1004A00081E0E81AF10809F48FC1C701412C512CF1
:1004B000320143940197440C551C661C771C530170
:1004C0004201880C991CAA1CBB1C880C991CAA1CF4
:1004D000BB1C480C591C6A1C7B1C009759F7411522
:1004E000510509F063C1EF3F9FEFF90709F469C1B6
:1004F000CF010196841B950B8617970738F5CF011E
:1005000001960E94DE0CD10115969C938E93149750
:10051000ED91FC91E80FF91FFC87EB8769817A81E7
:100520008B819C81A90198010E94F20CA301920188
:100530000E94F20C205DAB85BC852C93F1014281B9
:100540005381668177810480F581E02DE114F10407
:1005500009F082CF4115510509F040C1EF3F2FEF5F
:10056000F20731F0CF010196DC01A41BB50BAD0100
:100570004617570780F4CF0101960E94DE0CD10187
:1005800015969C938E9314972D913C91F901E80F49
:10059000F91F2EE22083CD80DE80C114D10409F43E
:1005A00031C1960161E070E080E090E021503109B6
:1005B000DC01CB01880F991FAA1FBB1F6C017D01B5
:1005C000CC0CDD1CEE1CFF1CCC0CDD1CEE1CFF1C3F
:1005D000BC01CD016C0D7D1D8E1D9F1D21153105AA
:1005E00029F70E94270E9B01AC016F8178858985D0
:1005F0009A850E94D90E6B017C0120E030E040E238
:1006000051E40E94D90E0E94F80D2AE030E040E04B
:1006100050E00E94F20C653071058105910508F4E7
:10062000EAC0C701B6010E94F80D4B015C012FEF33
:10063000821A920AA20AB20ACD80DE80CD2809F47D
:1006400085C044244394512C4D815E8181E090E02B
:10065000A0E0B0E0415051098C019D01000F111F35
:10066000221F331FD901C801880F991FAA1FBB1F62
:10067000880F991FAA1FBB1F080F191F2A1F3B1F96
:10068000D901C8014115510529F74D815E814150BD
:1006900051095E834D834115510509F49AC0CA0181
:1006A000C12CD12C7601C3940197CC0CDD1CEE1C1F
:1006B000FF1CB701A601440F551F661F771F440F8B
:1006C000551F661F771FC40ED51EE61EF71E009726
:1006D00059F7D10112964D915C911397411551052F
:1006E00009F04DC01496ED91FC911597EF3FBFEFC7
:1006F000FB0731F0C201841B950BAC014E0F5F1F4D
:10070000D10116966D917C91179746175707C8F43B
:10071000CF0101960E94DE0CF10195838483408114
:1007200051813A01680E791EC501B401A9019801F1
:100730000E94F20CA70196010E94F20C205DD301E9
:100740002C93CD80DE80CD2809F07ECF2C960FB67D
:10075000F894DEBF0FBECDBFDF91CF911F910F91F7
:10076000FF90EF90DF90CF90BF90AF909F908F90D1
:100770007F906F905F904F903F902F900895D101A0
:100780001496ED91FC911597E417F50708F0B2CF98
:10079000D10116966D917C911797CF01860F971F07
:1007A0000196DC01A41BB50BAD01AFCFE417F50733
:1007B00008F09ECECB018E0F9F1F0196841B950BD8
:1007C0009BCE80E090E098CE412C512C3201439496
:1007D00086CEC12CD12C7601C3947BCFE417F507CC
:1007E00008F0C0CECB018E0F9F1F01966C01C41A7A
:1007F000D50AA601BDCEC701B6010E94F80D4B0176
:100800005C011ACF20E030E040E85FE3EECED80193
:1008100012964D915C91139716966D917C91179756
:100820001496ED91FC91159795CE2F923F924F9291
:100830005F926F927F928F929F92AF92BF92CF9270
:10084000DF92EF92FF920F931F93CF93DF937C0180
:100850008B018F3F2FEF920709F4A0C02C01612C70
:10086000712CC0E0D0E0219609F4C4C0CE0121E093
:1008700030E040E050E00197BA01A901440F551F54
:10088000661F771F4A015B01880C991CAA1CBB1CC0
:10089000880C991CAA1CBB1C9A01AB01280D391DA0
:1008A0004A1D5B1D009739F7C301B2010E94F20C8B
:1008B000E616F706C1F6209709F470C0CE0141E0B4
:1008C00050E060E070E001974A015B01880C991CE0
:1008D000AA1CBB1CB501A401440F551F661F771F3E
:1008E000440F551F661F771F840E951EA61EB71E48
:1008F000B501A401009739F7219709F476C0CE011C
:10090000C12CD12C7601C3940197CC0CDD1CEE1CBC
:10091000FF1CB701A601440F551F661F771F440F28
:10092000551F661F771FC40ED51EE61EF71E0097C3
:1009300059F7F80182819381009709F042C0448100
:1009400055814F3FFFEF5F0739F021E030E0281B72
:10095000390BC901840F951FF801668177818617CD
:10096000970708F0A8CFCA0101960E94DE0CF80193
:100970009583848320803180280E391EC301B20103
:10098000A50194010E94F20CA70196010E94F20CAD
:10099000205DF1012083209709F090CFDF91CF9166
:1009A0001F910F91FF90EF90DF90CF90BF90AF908D
:1009B0009F908F907F906F905F904F903F902F907F
:1009C0000895F801448155814817590708F0BDCFB3
:1009D000F801668177819A01260F371F2F5F3F4FFD
:1009E000F901E81BF90BCF01BACFC12CD12C76014C
:1009F000C3949FCF60E070E05BCF2F923F924F9205
:100A00005F926F927F928F929F92AF92BF92CF929E
:100A1000DF92EF92FF920F931F93CF93DF93CDB7A7
:100A2000DEB762970FB6F894DEBF0FBECDBF5C0194
:100A3000788B6F875E874D8719018C0120E030E04D
:100A400009871A872B873C87C901B8010E94270EA6
:100A500025ED38E74DE950E40E94D90E20E030E062
:100A600040E85AE30E94D90E69837A838B839C8382
:100A700020910601D101222309F452C012960D9152
:100A80001C9113971696ED90FC9017971496ED9184
:100A9000FC911597FA8BE98BE7E0F1E030C04989CA
:100AA0005A894F3F5F4FC9F189899A890196801B06
:100AB000910B8E159F0500F589899A890196B701DA
:100AC0000E94DE0CD10115969C938E9314974D9144
:100AD0005C91DA01A80FB91F2C93D1011696ED9005
:100AE000FC90179712960D911C91139714962D91C7
:100AF0003C9115973A8B298B21912223F9F001150E
:100B0000110569F289899A898017910768F68E0D17
:100B10009F1D0196801B910BCCCF80E090E0C9CF48
:100B20001696ED90FC90179712960D911C911397C5
:100B30001496ED91FC911597FA8BE98B3FEFA31674
:100B4000B30609F4B7C0C12CD12CBE82AD82498452
:100B50005A846B847C844FEFC41AD40A09F4E8C227
:100B6000B60121E030E040E050E0615071094901F8
:100B70005A01880C991CAA1CBB1CD501C401880F02
:100B8000991FAA1FBB1F880F991FAA1FBB1FA50172
:100B90009401280F391F4A1F5B1F6115710529F742
:100BA000C301B2010E94F20C8D819E8186179707C6
:100BB00091F6C114D10409F47DC0960181E090E062
:100BC000A0E0B0E021503109880F991FAA1FBB1F78
:100BD0002C013D01440C551C661C771C440C551C13
:100BE000661C771C480E591E6A1E7B1ED301C2016B
:100BF0002115310539F791E0C91AD10809F493C2DA
:100C0000C601812C912C540183940197880C991C66
:100C1000AA1CBB1CB501A401440F551F661F771FFA
:100C2000440F551F661F771F840E951EA61EB71E04
:100C3000009759F70115110509F083C0A989BA89F0
:100C4000119609F48BC089899A890196801B910BB2
:100C50008E159F0508F0ADCF89899A890196B70155
:100C60000E94DE0CD10115969C938E931497ED9102
:100C7000FC91E80FF91FFE83ED8369857A858B85EA
:100C80009C85A30192010E94F20CA50194010E948F
:100C9000F20C205DAD81BE812C93F101E680F780DE
:100CA00002811381248135813A8B298BC114D104AF
:100CB00009F083CF20910801222309F455C0E9E00F
:100CC000F1E031C049895A894F3F5F4F09F449C06B
:100CD00089899A890196801B910B8E159F0500F5D5
:100CE00089899A890196B7010E94DE0CD101159677
:100CF0009C938E9314974D915C91DA01A80FB91FC4
:100D00002C93D1011696ED90FC90179712960D91A9
:100D10001C91139714962D913C9115973A8B298B22
:100D20002191222309F10115110561F289899A891E
:100D30008017910768F68E0D9F1D0196801B910B01
:100D4000CCCF29893A892017310708F07CCFC90117
:100D50008E0D9F1D0196801B910B7ACF80E090E055
:100D600077CF80E090E0B9CF20910B01222309F4E6
:100D700042C0ECE0F1E031C049895A894F3F5F4FF2
:100D800009F4CEC189899A890196801B910B8E1531
:100D90009F0500F589899A890196B7010E94DE0CAA
:100DA000D10115969C938E9314974D915C91DA0125
:100DB000A80FB91F2C93D1011696ED90FC901797B0
:100DC00012960D911C91139714962D913C911597A5
:100DD0003A8B298B2191222371F00115110561F2C3
:100DE00089899A898017910768F68E0D9F1D019653
:100DF000801B910BCCCF69817A818B819C810E9471
:100E0000F80D4B015C010115110509F494C14989E4
:100E10005A894017510708F094C1CA018E0D9F1DD1
:100E20009C012F5F3F4F201B310B2E153F0508F013
:100E30009EC1CA010196B7010E94DE0CD101159630
:100E40009C938E931497ED91FC91E80FF91FFE830C
:100E5000ED83C501B4012AE030E040E050E00E949B
:100E6000F20C605DAD81BE816C93F1010281138152
:100E7000E680F780248135813A8B298B0115110595
:100E800009F06DC149895A894F3F5F4F39F089890F
:100E90009A890196DC01A01BB10B8D010E151F056F
:100EA00090F489899A890196B7010E94DE0CD101DC
:100EB00015969C938E9314972D913C91F901E80F10
:100EC000F91F2EE220830D851E850115110509F4F9
:100ED0005DC4C80141E050E060E070E00197440F5C
:100EE000551F661F771F8A019B01000F111F221FCC
:100EF000331F000F111F221F331F400F511F621F8E
:100F0000731F009759F7CB01BA010E94270E6B019E
:100F10007C01C501B4010E94270E9B01AC016981CF
:100F20007A818B819C810E94140DA70196010E94F9
:100F3000D90E6B017C0120E030E040E251E40E94D8
:100F4000D90E0E94F80D2AE030E040E050E00E9407
:100F5000F20C653071058105910508F4FAC1C701ED
:100F6000B6010E94F80D4B015C011FEF811A910A36
:100F7000A10AB10A0D851E850115110509F480C06D
:100F8000380144244394512CA30181E090E0A0E077
:100F9000B0E041505109880F991FAA1FBB1F8C0157
:100FA0009D01000F111F221F331F000F111F221F51
:100FB000331F080F191F2A1F3B1FD901C8014115F4
:100FC000510539F741E0641A710809F4BDC1C30144
:100FD000C12CD12C7601C3940197CC0CDD1CEE1CE6
:100FE000FF1CB701A601440F551F661F771F440F52
:100FF000551F661F771FC40ED51EE61EF71E0097ED
:1010000059F7D10112964D915C91139741155105F5
:1010100009F0B3C01496ED91FC911597EF3FBFEF27
:10102000FB0731F0B201641B750BAB014E0F5F1F64
:10103000D10116966D917C91179746175707E0F4EA
:10104000CF0101960E94DE0CF101958384834081DB
:101050005181BA01680F791F7E836D83C501B40188
:10106000A90198010E94F20CA70196010E94F20CBE
:10107000205DAD81BE812C936114710409F084CF91
:1010800010911101112309F48FC0E2E1F1E029C0B0
:1010900014968D919C9115978F3FBFEF9B0739F068
:1010A00041E050E0421B530B9A01280F391FD10138
:1010B00016966D917C9117972617370770F4019655
:1010C0000E94DE0CD10115969C938E9314972D915E
:1010D0003C91D901A80FB91F1C931191112309F458
:1010E00063C0D10112962D913C91139721153105C2
:1010F00079F2D10114968D919C91159782179307DF
:1011000078F6D10116966D917C911797AC01460F38
:10111000571F4F5F5F4FDA01A21BB30B9D01CCCF6E
:1011200080E090E034CE812C912C5401839482CDC8
:1011300060E070E039CD69897A896F3F7F4F09F4AB
:10114000AFC289899A8901969C01201B310B2E150B
:101150003F0508F470CE0115110509F493CE898975
:101160009A898017910708F092CE8E0D9F1D0196E7
:10117000FC01E01BF10B8F0191CED1011496ED9192
:10118000FC911597E417F50708F04CCFD10116969E
:101190006D917C911797CF01860F971F0196DC0107
:1011A000A41BB50BAD0149CF10911401112309F413
:1011B0004AC0E5E1F1E028C014968D919C91159705
:1011C0008F3FBFEF9B0739F041E050E0421B530BCC
:1011D0009A01280F391FD10116966D917C911797AE
:1011E0002617370770F401960E94DE0CD101159680
:1011F0009C938E9314972D913C91D901A80FB91F00
:101200001C9311911123F9F0D10112962D913C916B
:1012100013972115310581F2D10114968D919C917E
:1012200015978217930780F6D10116966D917C91E0
:101230001797AC01460F571F4F5F5F4FDA01A21B94
:10124000B30B9D01CDCF27E636E646E650E4698133
:101250007A818B819C810E94150D2DEC3CEC4CE435
:101260005EE30E94860D6B017C012DEC3CEC40E9B5
:1012700051E40E94810D87FF73C040911701442300
:1012800009F449C0E8E1F1E028C014968D919C91E1
:1012900015978F3FBFEF9B0739F001E010E0021B6D
:1012A000130B9801280F391FD10116966D917C916F
:1012B00017972617370770F401960E94DE0CD101AC
:1012C00015969C938E9314972D913C91D901A80F5C
:1012D000B91F4C9341914423F1F0D10112962D9105
:1012E0003C9113972115310581F2D10114968D910E
:1012F0009C9115978217930780F6D10116966D91F0
:101300007C911797DC01A60FB71F11968D01021B68
:10131000130B9801CECF62960FB6F894DEBF0FBEC6
:10132000CDBFDF91CF911F910F91FF90EF90DF9094
:10133000CF90BF90AF909F908F907F906F905F9075
:101340004F903F902F900895C12CD12C7601C394DB
:1013500058CEC701B6010E94F80D4B015C010ACEC0
:10136000C701B6010E94F80D69837A838B839C8341
:101370000E94270E9B01AC01C701B6010E94140D0B
:101380006D837E838F8398870F85188901151105DA
:1013900009F406C23801D10112960D90BC91A02D1E
:1013A000BA87A987F101A680B78084809580A301C0
:1013B00081E090E0A0E0B0E041505109880F991F12
:1013C000AA1FBB1F8C019D01000F111F221F331F7D
:1013D000000F111F221F331F080F191F2A1F3B1F49
:1013E000D901C8014115510539F7F1E06F1A7108AB
:1013F00009F445C1C301C12CD12C7601C3940197D6
:10140000CC0CDD1CEE1CFF1CB701A601440F551FC0
:10141000661F771F440F551F661F771FC40ED51E0A
:10142000E61EF71E009759F749855A854115510563
:1014300009F017C15FEF8516950609F41DC1C401B7
:101440000196A985BA858A1B9B0B8A159B0578F5A1
:10145000C4010196B5010E94DE0CD10115969C9342
:101460008E931497ED91FC91E80FF91FFA87E987A5
:1014700069817A818B819C81A90198010E94F20C7B
:10148000A70196010E94F20C205DA985BA852C93D4
:10149000F1010280F381E02DFA87E987D1011696E8
:1014A000AD90BC90179714968D909C9015976114F1
:1014B000710409F07CCF09851A850115110509F41D
:1014C000E3C08016910608F0E4C0C501880D991D9F
:1014D0000196801B910B8A159B0500F5C4010196AE
:1014E000B5010E94DE0CD10115969C938E93149742
:1014F0002D913C911197F901E80FF91F2EE22083FD
:1015000012960D911C9113971A8709871696AD9024
:10151000BC90179714968D909C90159720E030E022
:1015200048EC52E46D817E818F8198850E94D90EAE
:101530006B017C0120E030E040E251E40E94D90ED2
:101540000E94F80D2AE030E040E050E00E94F20CEA
:10155000653071058105910508F40FC1C701B60119
:101560000E94F80D8B019C010F5F1F4F2F4F3F4FC3
:1015700009831A832B833C8302E010E0980181E009
:1015800090E0A0E0B0E021503109880F991FAA1F18
:10159000BB1F2C013D01440C551C661C771C440CE0
:1015A000551C661C771C480E591E6A1E7B1ED301F3
:1015B000C2012115310539F70150110909F4D8C0CC
:1015C0009AE0C92ED12CE12CF12C29853A852115E0
:1015D000310509F06CC03FEF8316930609F476C01D
:1015E000C4010196BC01A985BA856A1B7B0B7A8769
:1015F0006987AB014A155B0500F5C4010196B50189
:101600000E94DE0CD10115969C938E931497ED9158
:10161000FC91E80FF91FFE83ED8369817A818B814C
:101620009C81A30192010E94F20CA70196010E94E5
:10163000F20C205DAD81BE812C930115110509F4DA
:1016400048C0F1010280F381E02DFA87E987D101DA
:101650001696AD90BC90179714968D909C90159708
:101660008DCF8416950608F0EACEC501880D991D28
:101670000196841B950BE9CE80E090E0E6CEC12C6C
:10168000D12C7601C394D0CE1FEF8116910609F4B8
:1016900084C0C401019609851A85801B910B1BCF5C
:1016A000E114F10409F40FCC80E090E0C4CB821681
:1016B000930608F095CFC501880D991D0196FC0190
:1016C000E21BF30BFA87E987AF0194CF49855A856E
:1016D00091CF40911D01442309F41DCEEEE1F1E0CC
:1016E00029C014968D919C9115978F3FBFEF9B0752
:1016F00039F001E010E0021B130B9801280F391F8D
:10170000D10116966D917C9117972617370770F4C3
:1017100001960E94DE0CD10115969C938E9314972E
:101720002D913C91D901A80FB91F4C9341914423AD
:1017300009F4F1CDD10112962D913C911397211509
:10174000310579F2D10114968D919C9115978217EC
:10175000930778F6D10116966D917C911797DC016D
:10176000A60FB71F11968D01021B130B9801CDCF49
:10177000C12CD12C7601C39428CFC701B6010E9499
:10178000F80D69837A838B839C83F6CEC12CD12C90
:10179000E0E8EE2EEFE3FE2EBCCB80E090E09BCEA7
:1017A000D10112960D90BC91A02DBA87A987F101A5
:1017B000A680B780848095807ECE1F920F920FB650
:1017C0000F9211240BB60F92FF920F931F932F933A
:1017D0003F934F935F936F937F938F939F93AF93B9
:1017E000BF93CF93DF93EF93FF9384B190E09093F7
:1017F00023018093220185B190E0982F8827909350
:10180000250180932401C0912601D0912701E09108
:101810002201F091230180912401909125019E01E4
:1018200043E050E062E070E08E0F9F1F0E94FD04D5
:10183000E1E0F0E00FEF1FEF8A819B814C815D8139
:10184000009739F54F3F2FEF520779F19F01281B81
:10185000390B240F351F232B41F15D9BFECF0097E1
:1018600009F057C04F3F2FEF520739F09F01281B57
:10187000390B240F351F232B81F58FEF8CB9C091C5
:101880002601D09127018A819B814C815D8100973F
:10189000C9F248175907D0F62E813F81240F351F12
:1018A0002F5F3F4F281B390BC1F6FF91EF91DF915E
:1018B000CF91BF91AF919F918F917F916F915F91E8
:1018C0004F913F912F911F910F91FF900F900BBE61
:1018D0000F900FBE0F901F901895A881B981A80F87
:1018E000B91FFC900097C9F54F3F2FEF520741F009
:1018F0009F01281B390B420F531F4130510539F10D
:1019000001966E817F810E94DE0C9B838A838F2DDE
:10191000B5CF4817590708F0A9CF2E813F81B901EB
:101920006F5F7F4F681B790B640F751F672B09F47E
:10193000A4CFA881B981A80FB91FFC902F5F3F4F9A
:10194000281B390B420F531F41305105C9F61B822A
:101950001A821D830C838F2D91CF4817590740F6AB
:101960002E813F81EBCF1092900080E189B988E011
:101970008AB986E08093950088E090E00E94460F47
:10198000EC0190932701809326011B821A828FEF2E
:101990009FEF9D838C8388E290E09F838E830E94DB
:1019A000460F9983888383E086B980E487B93D98A0
:1019B000359A379A339A7894369AFFCFAA1BBB1B75
:1019C00051E107C0AA1FBB1FA617B70710F0A61B3F
:1019D000B70B881F991F5A95A9F780959095BC0160
:1019E000CD010895A1E21A2EAA1BBB1BFD010DC05B
:1019F000AA1FBB1FEE1FFF1FA217B307E407F507BF
:101A000020F0A21BB30BE40BF50B661F771F881F9A
:101A1000991F1A9469F760957095809590959B0130
:101A2000AC01BD01CF0108955058BB27AA270E94E1
:101A30002C0D0C949F0E0E94910E38F00E94980E6F
:101A400020F039F49F3F19F426F40C948E0E0EF416
:101A5000E095E7FB0C94880EE92F0E94B00E58F336
:101A6000BA17620773078407950720F079F4A6F583
:101A70000C94D20E0EF4E0950B2EBA2FA02D0B0174
:101A8000B90190010C01CA01A0011124FF27591BC3
:101A900099F0593F50F4503E68F11A16F040A22FC9
:101AA000232F342F4427585FF3CF4695379527953A
:101AB000A795F0405395C9F77EF41F16BA0B620B39
:101AC000730B840BBAF09150A1F0FF0FBB1F661F80
:101AD000771F881FC2F70EC0BA0F621F731F841FC3
:101AE00048F4879577956795B795F7959E3F08F0E9
:101AF000B0CF9395880F08F09927EE0F97958795AB
:101B000008950E94640E08F481E008950E949A0DE1
:101B10000C949F0E0E94980E58F00E94910E40F077
:101B200029F45F3F29F00C94880E51110C94D30EC8
:101B30000C948E0E0E94B00E68F39923B1F35523D6
:101B400091F3951B550BBB27AA27621773078407D0
:101B500038F09F5F5F4F220F331F441FAA1FA9F366
:101B600035D00E2E3AF0E0E832D091505040E69554
:101B7000001CCAF72BD0FE2F29D0660F771F881FB5
:101B8000BB1F261737074807AB07B0E809F0BB0BA8
:101B9000802DBF01FF2793585F4F3AF09E3F5105BC
:101BA00078F00C94880E0C94D30E5F3FE4F3983ECB
:101BB000D4F3869577956795B795F7959F5FC9F7A5
:101BC000880F911D9695879597F90895E1E0660F26
:101BD000771F881FBB1F621773078407BA0720F09F
:101BE000621B730B840BBA0BEE1F88F7E095089508
:101BF0000E94B80E88F09F5798F0B92F9927B751D7
:101C0000B0F0E1F0660F771F881F991F1AF0BA95A0
:101C1000C9F714C0B13091F00E94D20EB1E008951E
:101C20000C94D20E672F782F8827B85F39F0B93F10
:101C3000CCF3869577956795B395D9F73EF4909553
:101C40008095709561957F4F8F4F9F4F0895E894D1
:101C500009C097FB3EF490958095709561957F4FF4
:101C60008F4F9F4F9923A9F0F92F96E9BB279395A2
:101C7000F695879577956795B795F111F8CFFAF4B2
:101C8000BB0F11F460FF1BC06F5F7F4F8F4F9F4FE3
:101C900016C0882311F096E911C0772321F09EE841
:101CA000872F762F05C0662371F096E8862F70E0A7
:101CB00060E02AF09A95660F771F881FDAF7880F81
:101CC0009695879597F90895990F0008550FAA0BD7
:101CD000E0E8FEEF16161706E807F907C0F012163F
:101CE0001306E407F50798F0621B730B840B950B42
:101CF00039F40A2661F0232B242B252B21F4089597
:101D00000A2609F4A140A6958FEF811D811D089533
:101D100097F99F6780E870E060E008959FEF80EC9E
:101D2000089500240A941616170618060906089541
:101D300000240A9412161306140605060895092EA7
:101D40000394000C11F4882352F0BB0F40F4BF2B16
:101D500011F460FF04C06F5F7F4F8F4F9F4F089556
:101D600057FD9058440F551F59F05F3F71F047954C
:101D7000880F97FB991F61F09F3F79F08795089531
:101D8000121613061406551FF2CF4695F1DF08C050
:101D9000161617061806991FF1CF8695710561056D
:101DA00008940895E894BB2766277727CB0197F915
:101DB00008950E94EC0E0C949F0E0E94910E38F034
:101DC0000E94980E20F0952311F00C94880E0C942C
:101DD0008E0E11240C94D30E0E94B00E70F3959FBA
:101DE000C1F3950F50E0551F629FF001729FBB2712
:101DF000F00DB11D639FAA27F00DB11DAA1F649FAE
:101E00006627B00DA11D661F829F2227B00DA11D60
:101E1000621F739FB00DA11D621F839FA00D611DE6
:101E2000221F749F3327A00D611D231F849F600D07
:101E3000211D822F762F6A2F11249F5750409AF030
:101E4000F1F088234AF0EE0FFF1FBB1F661F771FBC
:101E5000881F91505040A9F79E3F510580F00C9487
:101E6000880E0C94D30E5F3FE4F3983ED4F386952E
:101E700077956795B795F795E7959F5FC1F7FE2B27
:101E8000880F911D9695879597F908950F931F9345
:101E9000CF93DF938230910510F482E090E0E091DF
:101EA0002A01F0912B0120E030E0A0E0B0E0309773
:101EB00019F1408151810281138148175907C8F0F7
:101EC0008417950769F4109731F012960C931297C6
:101ED00013961C9327C000932A0110932B0122C054
:101EE0002115310519F04217530718F49A01BD0165
:101EF000EF01DF01F801DBCF21153105F9F0281BD7
:101F0000390B2430310580F48A819B81611571057C
:101F100021F0FB019383828304C090932B01809373
:101F20002A01FE01329644C0FE01E20FF31F8193A5
:101F3000919322503109398328833AC02091280196
:101F400030912901232B41F42091020130910301AA
:101F50003093290120932801209100013091010143
:101F60002115310541F42DB73EB740910401509140
:101F70000501241B350BE0912801F0912901E2179E
:101F8000F307A0F42E1B3F0B2817390778F0AC019C
:101F90004E5F5F4F2417350748F04E0F5F1F509379
:101FA0002901409328018193919302C0E0E0F0E081
:101FB000CF01DF91CF911F910F910895CF93DF93C0
:101FC000009709F481C0FC01329713821282A0911C
:101FD0002A01B0912B01109781F420813181820F69
:101FE000931F20912801309129012817390751F5B5
:101FF000F0932901E093280167C0ED0120E030E073
:10200000CE17DF0740F44A815B819E0141155105DF
:10201000F1F0EA01F5CFD383C28340815181840F6F
:10202000951FC817D90759F488819981840F951F86
:102030000296918380838A819B8193838283211579
:10204000310529F4F0932B01E0932A013DC0E90109
:10205000FB83EA8349915991C40FD51FEC17FD0703
:1020600061F480819181840F951F0296E901998323
:102070008883828193819B838A83E0E0F0E01296DB
:102080008D919C911397009719F0FD01DC01F7CF1A
:102090008D919C9111979D012E5F3F4F820F931F51
:1020A00020912801309129012817390769F43097C8
:1020B00029F410922B0110922A0102C0138212827D
:1020C000B0932901A0932801DF91CF910895F8944E
:0220D000FFCF40
:1020D20000002C01200028002920004F75743A20AE
:1020E200005609004020004F66660A0A00560A0A96
:0220F2000000EC
:00000001FF
